:0400000051EF01F0CB
:060008004382F4EF04F056
:100018004380D8CF14F0E8CF15F0E0CF16F0E1CF49
:1000280017F0E2CF18F0D9CF19F0DACF1AF09EBA4C
:100038009DAA57D0ABA00BD0AECF1CF0AECF1CF012
:10004800326AAB98AB9E9D9A020E2B6E49D0AECF0A
:100058001CF0000E3224D96EDA6A010EDA221CC0B6
:10006800DFFF322A00F000F000F000F000F000F0AE
:100078009EAA0BD0AECF1CF0000E3224D96EDA6ADD
:10008800010EDA221CC0DFFF322A7E0E01010019A0
:1000980001E0326A020E321806E17E0E001903E012
:1000A800012901E0326A090E32641AD0EF0E0919EB
:1000B80016E1010E00017F6F1C6A090E1C6401D055
:1000C8000ED0000E1C24D96EDA6A010EDA221C50FA
:1000D800990FE16EE26ADFCFE7FF1C2AEED7326A9A
:1000E8009E9A9EB89DA815D09E98000177510FE062
:1000F8000A0E3024D96EDA6A010EDA22DF50AD6EAC
:10010800302AC80E301801E1306A770702D0786BC0
:100118009D98F2B4F2AA4CD0F2943688D66A0C0EA6
:10012800D76E2D50010ED8A4000E2D6E37500BE05F
:100138008CB003D0126A122A01D0126A8C5012189D
:10014800FE0B12188C6E395001E039063D5001E063
:100158003D062D502DE0368A422A0001722B090EE9
:1001680072650AD0010E736F726B342A080E3464FC
:1001780002D0010E346E368C69516A1103E06907AA
:10018800D8A06A073AA011D079510FE07B2B130E43
:100198007B650ED07A2B0B0E7A6102D0746B08D077
:1001A800010E376E0A0E7A6F03D07B6B7A6B376A53
:1001B8009EB09DA062D02C2A9E90F60ECF6E3C0E6B
:1001C800CE6E36800A0E0E6E2C503CEC0AF00009FA
:1001D80001E13684140E0E6E2C503CEC0AF0000936
:1001E80018E13686405001E040062E5006E02E0603
:1001F8002E5003E1010E0001766F2B500AE02B060A
:100208002B5007E1AB88AB8EAECF1CF0AECF1CF005
:100218009D8A00016B516C1103E06B07D8A06C0735
:1002280027C028F026C027F082500F0B266E1C6AC4
:10023800030E1C6401D021D01CC012F0010E136EF5
:10024800122A02D0D8901336122EFCD713501B6EE8
:1002580028501B14126E27501B1412180CE127503B
:100268001B14126E26501B14121805E11B1C3A169B
:1002780028501B143A121C2ADBD71AC0DAFF19C0FF
:10028800D9FF18C0E2FF17C0E1FF16C0E0FF15C094
:10029800E8FF14C0D8FF43901000CEEF08F0B86B09
:1002A800BC6BB96BBA6BAA51D96EDA6ADF50BB6FF7
:1002B800400EBB1901E0C1D0AA51D96EDA6A020E0C
:1002C800D9263F50DE1801E09CD1AA51D96EDA6ACE
:1002D800040ED926DF50B96FAA51D96EDA6A050E15
:1002E800D926DF50BA6FB95102E1200EB96FBA5161
:1002F80002E1200EBA6FBF6BBD6BBE6BB30E1D6EF5
:10030800FC0E1E6E7F0E1F6EBDC0ABF0BEC0ACF003
:10031800D890AB37AC37BF51AD6FAE6B080EAD039D
:10032800F3CFAFF0F4CFB0F0AE03F350B027020E26
:10033800AD03F350B027170EB16F650EB26FAF5112
:10034800B127B051B223AB51B127AC51B223B1C0E0
:10035800F6FFB2C0F7FF0900F5CF20F00A00F5CF8D
:1003680021F0BAEC07F0B351B9190AE1BA51B4193E
:1003780007E1010EB86FBF298A6FBD29CD6F0DD077
:10038800300EB31903E1300EB41907E0BD4BBE2B94
:10039800040EBD5D010EBE59B1E3B85104E1BF2B97
:1003A800020EBF65A9D7B85101E02BD1BF6BBD6B59
:1003B800BE6BB30E1D6EFC0E1E6E7F0E1F6EBDC093
:1003C800ABF0BEC0ACF0D890AB37AC37BF51340DF2
:1003D8002F0EAD6F6B0EAE6FF350AD27F450AE23FA
:1003E800AB51AD27AC51AE23ADC0F6FFAEC0F7FFA1
:1003F8000900F5CF20F00A00F5CF21F0BAEC07F09C
:10040800B351B9190BE1BA51B41908E1010EB86F2B
:10041800030E8A6FBF51DD0FCD6F07D0BD4BBE2BCA
:10042800BE5103E11A0EBD5DC4E3B85101E0E9D045
:10043800BF2B190EBF65BBD7E4D0420EBB1926E10E
:10044800AA51D96EDA6A020ED9263F50DE1801E0A9
:10045800D8D0AA51D96EDA6A050ED926DFB002D0F3
:10046800BC6B07D0AA51D96EDA6AD92ADF50330B90
:10047800BC6FBCC0ABF0030EAB17020EAB6501D06E
:10048800BC6BBCC03EF0010E896FBBD0440EBB19DB
:1004980009E13D5007E1CDC0CCF0010E886F0A0E8E
:1004A8003D6EAFD00E0EBB1901E0ABD0AA51D96E8C
:1004B800DA6AD92ADF50BC6F74D0AA51D96EDA6AC9
:1004C800050ED926DF5002E06F8980D06F997ED063
:1004D800AA51D96EDA6A050ED926DF5002E06F8775
:1004E80075D06F9773D0AA51D96EDA6A050ED926DE
:1004F800DF50826F17D0AA51D96EDA6A050ED92655
:10050800DF50816F0FD0AA51D96EDA6A050ED9264D
:10051800DF50806F07D0BC51880AF5E0070AEBE08E
:100528001F0AE1E082518111801102E06F854ED0EF
:100538006F954CD0AA51D96EDA6A050ED926DF50CC
:1005480002E06F8D43D06F9D41D0AA51D96EDA6A0F
:10055800050ED926DF5002E06F8B38D06F9B36D05E
:10056800AA51D96EDA6A050ED926DF5002E06F8FDC
:100578002DD06F9F2BD0AA51D96EDA6A050ED926D5
:10058800DF5002E0708122D0709120D0AA51D96E3C
:10059800DA6A050ED926DF5002E0708517D070950B
:1005A80015D0BC51050AF2E0030ADAE0160A85E024
:1005B800960AE1E0010A8CE00F0AADE0020ABAE00F
:1005C800050AA9E01F0AA7E0030ABFE06FC029F0E7
:1005D80070C02AF029502A100DE06D51291803E146
:1005E8006E512A180EE029C06DF02AC06EF0010E77
:1005F800876F07D0296A2A6A29C06DF02AC06EF071
:10060800876B885103E0886B010E866F85513E1811
:10061800D8B412003EC0ABF0330EAB17D8B4330CCD
:100628008951D8B412003EC085F0896B010E846FE1
:10063800010CB0D083510A0DD40EF324D96E010EEB
:10064800F420DA6EDF50C46FC56BC451C51101E1E7
:10065800B2D0050E8E1901E0AED0C76B83510A0DDA
:10066800D20EC06F010EC16F020EC027000EC1234B
:10067800F350C027F450C123C751C025D96E000ECE
:10068800C121DA6EC751A30FE16EE26ADFCFE7FF3F
:10069800C72B060EC765E2D7A30EAA6F53EC01F06D
:1006A8008AD083510A0DD30EF324D96E010EF4209B
:1006B800DA6EDF50C76FC75136E183510A0DD50E88
:1006C800F324D96E010EF420DA6EDF50C46FC56BC7
:1006D80083510A0DD70EF324D96E010EF420DA6E79
:1006E800DF50C66FC451C51109E0100EC419C511F9
:1006F80005E0C65103E0100EC61902E18D8301D052
:100708008D93300EC419C5110AE0400EC419C511E5
:1007180006E0300EC61903E0400EC61902E18D81CD
:100728001CD08D911AD0C7050BE183510A0DD50E47
:10073800F324D96E010EF420DA6EDF50CA6F0DD0A3
:10074800020EC7190AE183510A0DD50EF324D96E9A
:10075800010EF420DA6EDF50CB6F8D512CE08DA3A3
:1007680008D0200ECA1903E0200ECB1902E18C83B1
:1007780009D08DA107D0500ECA1903E0500ECB192D
:1007880001E18C818C5117E0010E8B6F8D6BCB6B67
:10079800CA6B11D083510A0DD20EF324D96E010E03
:1007A800F420DA6EDF5007E0400A01E17AD7C00A88
:1007B80001E140D7700AF29E300E836502D0836B48
:1007C80001D0832B3C063BC0C7F03CC0C6F0F28E7C
:1007D8008351C75D02E2320EC727320E1D6EC65125
:1007E80029EC0AF00001C06FC16B8351C7C0C2F089
:1007F800C36BC25F000EC35BC051C21904E1C15193
:10080800C319D8B41200FF001200030E1E6EE80EC2
:100818001D6E01EC0AF09DEC09F0010ED16EF26A32
:10082800D08E040067EC0AF05DEC0AF01E6A190E1F
:100838001D6EECEC09F0BCEC09F08E6B030E6C6FCE
:10084800E80E6B6F010E3F6EF28EF28C01D0040041
:1008580000016B516C11FBE1030E1E6EE80E1D6E5C
:1008680001EC0AF096EC08F0010E0001796FC96BF3
:10087800000EE2EC06F0050E00018E6F040063C066
:1008880069F06A6B040036A607D0375002E1D5EC50
:1008980009F051EC08F0369636A805D015EC0AF0A8
:1008A80030EC09F0369800017F5105E0990E1D6E75
:1008B80050EC07F07F6B3C5002E01DEC03F0030E98
:1008C8000001611903E10AEC08F076D0050E8E19D3
:1008D80073E1395002E1ADEC05F0020E61193EE119
:1008E80069516A1102E1635119E1385017E1010EAB
:1008F800226E62C0C8F0030EC817C829236E246A86
:10090800000E2422170E7DEC09F0010E1E6EF40E67
:100918001D6E01EC0AF0010E386E16D069516A118D
:1009280013E1635111E038500FE0010E226E246A82
:10093800050E236E170E7DEC09F0010E1E6EF40EE7
:100948001D6E01EC0AF0386A3EC0C8F0330E000193
:10095800C81732E063C069F06A6B2ED0610519E1EF
:1009680038502AE1010E226E62C0C8F0030EC81783
:10097800C829236E246A000E2422170E7DEC09F084
:10098800010E1E6EF40E1D6E01EC0AF0010E386E9B
:1009980013D0615111E138500FE0010E226E246A24
:1009A800050E236E170E7DEC09F0010E1E6EF40E77
:1009B8001D6E01EC0AF0386A415002E0405003E035
:1009C800140E426406D0416A426A0001C951E2EC41
:1009D80006F000017E5101E055D78C928C9452D7D5
:1009E800E1CF03F0E2CF04F0D9CF05F0DACF06F07B
:1009F800F3CF07F0F4CF08F0426A6E500E0B0C6E7E
:100A08008AD0320E3C6068D03B500A0DD20EF324D7
:100A1800D96E010EF420DA6E0F013151F00BDF6E42
:100A28003B500A0DD30EF324D96E010EF420DA6E72
:100A380032CF01F0050E026ED8900132022EFCD79B
:100A480031510F0B080DF3500124DF6E3B500A0D96
:100A5800D20EF324D96E010EF420DA6E800EDE1861
:100A68000BE03B500A0DD20EF324D96E010EF42090
:100A7800DA6E400EDE1830E135510F0B0B6E360E74
:100A8800096E0F0E0A6E0D6A1DD00D500924D96E1D
:100A9800000E0A20DA6E3B500A0DD20E016E010ECE
:100AA800026E020E0126000E0222F3500126F450B7
:100AB80002220D500124E16E000E0220E26EDFCF0B
:100AC800E7FF0D2A0B500D5CE0E3300E3B6402D0CB
:100AD8003B6A01D03B2A3C2A0F01309F77922BD0EA
:100AE80061506250609E779026D0779424D0779C8E
:100AF80022D0779620D077981ED0779A71BC719CB7
:100B080071BE719E71AA17D0415015E1140E406E46
:100B1800010E416E10D00C50020AEFE0060AEBE01D
:100B2800020AE7E00E0AE1E0020A01E16AD7060AD2
:100B3800D7E0020ADCE008C0F4FF07C0F3FF06C0F4
:100B4800DAFF05C0D9FF04C0E2FF03C0E1FF43920A
:100B58001100B06BAD6B86511DE06251030D8A51D7
:100B6800F324AE6F000EF420AF6FAE51AF6FAE6BD3
:100B7800866B6451D8B41200010E226EAE51CC11AE
:100B8800236EAF51246E250E7DEC09F0080E396EE8
:100B98007E6B120084512DE03EC0AAF0300EAA17D9
:100BA80028E06251030D030EF324AE6F000EF4200B
:100BB800AF6FAE51AF6FAE6B3EA802D0CC0E03D074
:100BC8003EAA02D0CD0EB06F3EC0AAF0300EAA17D2
:100BD800D8B4300C846B6551D8B41200010E226E63
:100BE800AE51B011236EAF51246E250E7DEC09F085
:100BF800CDD78B5122E08C5120E08C05AD6F62512E
:100C0800030D030EF324AE6F000EF420AF6FAE5148
:100C1800AF6FAE6BAD51CE0FB06F8C6B8B6B6651F7
:100C2800D8B41200010E226EAE51B011236EAF512E
:100C3800246E250E7DEC09F0A9D78751D8B412008F
:100C4800B06BB0C0AAF029C0ABF02AC0ACF0AA2B98
:100C580003D0D890AC33AB33AA2FFBD70001ABA19C
:100C680003D0B0C0ADF004D0B02B010EB065E9D709
:100C780029502A10D8B412006251030D030EF32430
:100C8800AE6F000EF420AF6FAE51AF6FAE6BAD51CB
:100C9800D00FB06F876B6851D8B41200010E226E66
:100CA800AE51B011236EAF51246E250E7DEC09F0C4
:100CB8006DD70001BC6BBA6BBB6BBC6BBC51B20F80
:100CC800D96EDA6A80CF1DF0010E1D16D8901D3638
:100CD800D8901D36D8901D3680CF1EF0020E1E16F5
:100CE800D8901E341F6E80CF20F0D8902032020E8C
:100CF80020168038E8461F0B010B20101F101D100E
:100D0800DF6EBC51B20FD96EDA6A0F0EDF16BC5116
:100D1800AA0FD96EDA6A8450030BDF6E00F000F078
:100D280000F000F000F000F000F000F000F000F03B
:100D380000F000F000F000F000F000F00001BC2B23
:100D4800070EBC65BBD7BC6BBCC01DF01D2A1D506F
:100D5800B20FD96EDA6ABC51B20FE16EE26ADE50A8
:100D6800E61801E1BA2BBCC01DF01D2A1D50AA0FC0
:100D7800D96EDA6ABC51AA0FE16EE26ADE50E61853
:100D880001E1BB2BBC2B060EBC65DED7050EBA6590
:100D98000BD0B21D030B626FB21D1D6ED8901D32B1
:100DA800D8901D30030B616F050EBB6504D0AA51A6
:100DB800030B7D6F1200010E7D6F010C1F6EF29EFA
:100DC8003C6A3B6A0001836B206A216A20500A0D45
:100DD800D20E1D6E010E1E6EF3501D26F4501E22FB
:100DE80021501D24D96E000E1E20DA6EDF6A212ADA
:100DF800090E2164EBD7202A310E2064E6D7216A38
:100E08002150A30FD96EDA6ADF6A212A060E2164FF
:100E1800F7D793949386708A7098800E6F6E6E5091
:100E2800E00B800AFCE11F04890ED8A4830E0E0192
:100E3800436FF40E446F020E456F200E606E0F0173
:100E4800306F0E01E16FE00EE06F200EE56FE00EEF
:100E5800E46FF96BFE0EF86FE96B800EE86FED6BCF
:100E6800400EEC6FF16B800EF06FF56B400EF46F77
:100E7800FD6BF00EFC6F6F6A6ECF1DF0E00E1D1655
:100E8800FBE10F01116B126B156B166B776A230E62
:100E9800766E7868F28E1200216A226A010E236E3D
:100EA8001D502324D96EDA6ADF502126000E222233
:100EB800232A060E2364F4D71D50D96EDA6A070E6A
:100EC800D926DF501F6E1E6A1D50D96EDA6A080EC9
:100ED800D926DF501E121E5021261F5022222150D3
:100EE8002210D8A412002E6A766B756B1D50D96E2D
:100EF800DA6A030ED926DF50206E1D50D96EDA6AE1
:100F0800060ED926DF50246E20D024C02FF0120000
:100F1800240401E11200020E241806E0050E24182C
:100F280003E0060E241803E1010E746F010C030E92
:100F3800241804E0040E2418D8A41200010E766FB9
:100F4800010C2E6A766B756B120020503A0AD8B4E1
:100F58001200010AD8B41200060AD8B41200020A14
:100F6800D4E07F0AD5E0010AECE01200200E226EE0
:100F78003DD0250E23182DE01D50D96EDA6A23C006
:100F8800DFFF1D2A33D02250D96EDA6ADECF24F073
:100F9800DDCF25F0020E22262450251012E1770E0F
:100FA800246E700E256E0DD024C0F6FF25C0F7FF05
:100FB8001D50D96EDA6A0800F5CFDFFF244A252ACA
:100FC8001D2A24C0F6FF25C0F7FF0800F5500EE0E3
:100FD800EBD71EC0F6FF1FC0F7FF1E4A1F2A0800E6
:100FE800F5CF23F023500DE0730ACDE01EC0F6FFC5
:100FF8001FC0F7FF1E4A1F2A0800F5CF23F0235011
:10100800B8E11D50D96EDA6ADF6A000C51EC08F0BD
:101018007351D8B41200736B340403E1010ECC6F22
:10102800866F020E341804E1010E846F100E3E6EB6
:10103800030E341804E1020ECC6F010E866F040E05
:10104800341804E1030ECC6F010E866F050E3418B8
:1010580004E1040ECC6F010E866F060E341804E10D
:10106800010E846F200E3E6E070E341804E1030E45
:10107800CC6F010E866F080E341804E1020ECC6F97
:10108800010E866F090E341803E1010ECC6F866FCE
:101098003350D8B4ADEC05F012003A1C0001AA6F29
:1010A800D890AA31030BAE6FAE5107E0711907E073
:1010B800010E336EAEC071F002D0336A716BAEA10F
:1010C80002D0AD6B0CD0AEA302D0010E07D0AEA5F6
:1010D80002D0020E03D0AEA702D0030EAD6F33507C
:1010E800D8B412006251030D030EF324AB6F000E47
:1010F800F420AC6FAB51AC6FAB6BAD51C80FAE6F9A
:10110800336A6751D8B41200010E226EAB51AE118A
:10111800236EAC51246E250E7DEC09F0080E396E55
:101128007E6B120060C07CF0010E226E7CC023F042
:10113800246A060E7DEC09F0010E1E6EF40E1D6E7B
:1011480001EC0AF0386A0001866B846B8B6B876B45
:1011580061510FE0010E226E62C0AAF0030EAA17B9
:10116800AA29236E246A000E2422170E7DEC09F0AA
:1011780008D0010E226E246A050E236E170E7DEC30
:1011880009F0030E1E6EE80E1D6E01EC0AF08C923B
:101198008C941200E00EF66E140EF76E000EF86EC8
:1011A80000EECAF010EE04F00900F5CFEEFFE550AE
:1011B800E150FAE101EED2F011EEF4F0EE6AE550FA
:1011C800E150FCE1E250FAE101EE00F0D20EEE6AE5
:1011D800E806FDE100EE60F04A0EEE6AE806FDE181
:1011E80000EE26F01D0EEE6AE806FDE143904392FC
:1011F800000EF86E000109EF04F01F6A12D01D50AE
:101208001F24D96EDA6A0A0E3124E16EE26A010EF1
:10121800E222DFCFE7FF312AC80E311801E1316A37
:101228001F2A1E501F5CEBE3F29E1E507727785151
:1012380010E10A0E3024D96EDA6A010EDA22DF5084
:10124800AD6E302AC80E301801E1306A7707010EFA
:10125800786F9D88F28E12007451D8B41200746BA6
:101268007B6BF29E010E226E246A236A150E7DECBA
:1012780009F0010E1E6EF40E1D6E01EC0AF01E6AD6
:10128800190E1D6EECEC09F0010E1E6EF40E1D6EAB
:1012980001EC0AF096EC08F0F28E030E1E6EE80ED2
:1012A8001D6E01EF0AF01F6A206A216A09D01D50DD
:1012B8002124D96EDA6ADF501F26000E2022212A47
:1012C8001E50215CF4E31F5000081F6E2050D8A068
:1012D800E82A0008206E1D502124D96EDA6A20C041
:1012E800DFFF1D502124D96EDA6AD92A1FC0DFFF1B
:1012F800010C256E7E0E00018F6F9069060E916FAE
:1013080025C092F022C093F024C094F023C095F039
:10131800EF0E986F900E1D6E060E1E6E57EC09F0BC
:101328008F0E1D6E0A0E1E6E01EC09F00A0E2E6E4F
:101338000A0C0F015A6B5B6B916AA86A906A5D6B25
:101348005C6B806A896A926881688A6AFB0E936E10
:10135800BF0E946E826A8B6A836A8C6AF00E956EF1
:101368008C828C848C86846A070E966E8D6A120035
:10137800216A2150A30FD96EDA6ADF6A212A060E84
:101388002164F7D75DEC06F04FEC0AF0030E6265B6
:1013980002D0010E626F030E6165030C010E616FCE
:1013A800010C352A040E356006D035A002D08C9089
:1013B800040C8C801200030E356405D00F0E3560C6
:1013C80002D08C800F0C0E0E35640E0C356A12009C
:1013D800949C948EA7961DC0AFFF1EC07DFF7D6AAA
:1013E8007D6A200EAC6E900EAB6EAB6EA7989E9881
:1013F8009F989D989F9A9D8A900C0BD01F6A206A8F
:10140800205006E1A50E1F5C03E21F4A202AF8D7E8
:1014180004001D06D8A01E061D28F0E11E28EEE1D6
:10142800120000017651D8B41200752B030E7565B1
:1014380003D0756B766B12008F0E1D6E0A0E1E6E32
:1014480001EC09F00A0E2E6E0A0C1E6E080E1F6EB5
:10145800206AD8901E342034206ED8901E361D5035
:10146800205C02E31D50205E1F2EF3D7205012008F
:101478000F6E080E106E116AD8900F341134116E69
:10148800D8900F360E50115C02E30E50115E102EEC
:10149800F3D7115012007D05190ED8A40F0E606FF6
:1014A8003C0E636F010E646F656F666F676F686BE4
:1014B80012009E909F909D80F60ECF6E3C0ECE6ED1
:1014C800310ECD6E310CF294F28AF194D66A0C0E7C
:0C14D800D76E840ED56E840CFFFFFFFF62
:10651600009970FF706571CB7131729772FA725D76
:1065260073C37384709F7005716B71D17137729DDF
:106536007200736373C9738770A27008716E71D429
:10654600713A72A07203736673CC738A70A5700B6E
:10655600717171D7713D72A37206736973CF738DB2
:1065660070A8700E717471DA714072A67209736C3C
:1065760073D2739070AB7011717771DD714372A92C
:10658600720C736F73D5739370AE7014717A71E079
:10659600717E709C7002716871CE7134729A72FD50
:1065A600726073C67326741F7518768476F0765CEF
:1065B60077C8773478A0780C797879327A9E7A58C9
:1065C6007BC47B307C9C7C087D747DE07D4C7EB8F2
:1065D6007E247F907F44743D751B768776F3765FC5
:1065E60077CB773778A3780F797B79357AA17A5B81
:1065F6007BC77B337C9F7C0B7D777DE37D4F7EBBAA
:106606007E277F937F477440751E768A76F676627C
:1066160077CE773A78A67812797E79387AA47A5E38
:106626007BCA7B367CA27C0E7D7A7DE67D527EBE61
:106636007E2A7F967F4A74437521768D76F9766534
:1066460077D1773D78A978157981793B7AA77A61F0
:106656007BCD7B397CA57C117D7D7DE97D557EC119
:106666007E2D7F997F4D74467524769076FC7668EC
:1066760077D4774078AC78187984793E7AAA7A64A8
:106686007BD07B3C7CA87C147D807DEC7D587EC4D1
:106696007E307F9C7F5074497527769376FF766BA4
:1066A60077D7774378AF781B798779417AAD7A6760
:1066B6007BD37B3F7CAB7C177D837DEF7D5B7EC789
:1066C6007E337F9F7F53744C752A76967602776E5B
:1066D60077DA774678B2781E798A79447AB07A6A18
:1066E6007BD67B427CAE7C1A7D867DF27D5E7ECA41
:1066F6007E367FA27F4672AC720F737273D8739622
:1067060070B17017717D71E3714972757381700094
:1067160000000000000000000056744F752D7699A9
:106726007605777177DD774978B57821798D794760
:106736007AB37A6D7BD97B457CB17C1D7D897DF5ED
:106746007D617ECD7E397FA57F5974527530769CEA
:106756007608777477E0774C78B878247990794A18
:106766007AB67A707BDC7B487CB47C207D8C7DF8A5
:106776007D647ED07E3C7FA87F5C74557533769FA2
:10678600760B777777E3774F78BB78277993794DD0
:106796007AB97A737BDF7B4B7CB77C237D8F7DFB5D
:1067A6007D677ED37E3F7FAB7FB4701A718071E6C2
:1067B600714C72AF7212737873DB73B7701D71838D
:1067C60071E9714F72B27215737B73DE73BA702002
:1067D600718671EC715272B57218737E73E173BD76
:1067E6007023718971EF715572B8721B738173E4EE
:1067F60073C07026718C71F2715872BB721E7384ED
:1068060073E773C37029718F71F5715B72BE722164
:10681600738773EA73C6702C719271F8715E72C1D8
:106826007224738A73ED73C9702F719571FB716150
:1068360072C47227738D73F073CC7032719871FEC7
:10684600716472C7722A739073F373CF7035719B3C
:106856007101726772CA722D739373F673D27038B0
:10686600719E7104726A72CD7230739673F973D524
:10687600703B71A17107726D72D07233739973FC9C
:1068860073D8703E71A4710A727072D37236739C9B
:1068960073FF73DB704171A7710D727372D6723913
:1068A600739F730274DE704471AA7110727672D986
:1068B600723C73A2730574E1704771AD71137279FE
:1068C60072DC723F73A5730874E4704A71B0711676
:1068D600727C72DF724273A8730B74E7704D71B3EA
:1068E6007119727F72E2724573AB730E74EA70505F
:1068F60071B6711C728272E5724873AE731174EDD3
:10690600705371B9711F728572E8724B73B173144B
:10691600748170000000000000000000000000000C
:1069260000F0705671BC7122728872EB724E73B4AD
:10693600731774F3705971BF7125728B72EE7251B1
:1069460073B7731A74F6705C71C27128728E72F125
:10695600725473BA731D74F9705F71C5712B72919D
:1069660072F4725773BD732074FC706271C8712E15
:10697600729472F7725A73C073237471746A75369F
:1069860076A2767A77E6775278507A0A7B767B4ECD
:106996007C74746D753976A5767D77E9775578536D
:1069A6007A0D7B797B297D777470753C76A8768025
:1069B60077EC775878567A107B7C7B7975457683A9
:1069C600748C77887B607C8B75C37607786F7C9E2A
:1069D60077D27FCF767F78377BBF7DAD771978A06A
:1069E60075B077AC7B5C7DB377A6752278BC74B541
:1069F60075C874C175CB74C475CE74C775D174CAA5
:106A060075D474CD75D774D075DA74D375DD74D634
:106A160075E074D975E374DC75E674DF75E974E2C4
:106A260075EC74E575EF74E875F274EB75F574EE54
:106A360075F874F175FB74F475FE74F7750175FAE3
:106A4600750475FD75077500760A7503760D75066E
:106A5600761075097613750C76297422752C7425B3
:106A6600752F74287532742B75387431753B7434F0
:106A7600753E74377535742E75C574BE7541743A96
:106A8600755F74587562745B7565745E756B746456
:106A960075687461756E746775BF74B875C274BBBA
:106AA6007516750F761C7515761975127681700038
:106AB60000000000000000000000000000000000D0
:106AC60000000000000000000000000000000000C0
:106AD60000000000000000000000000000000000B0
:106AE60000000000000000000000000000000000A0
:106AF6000000000000000000000000000000000090
:106B0600000000000000000000000000000000007F
:106B1600000000000000000000000000000000006F
:106B26000000000000000000007174747477747A2D
:106B3600747D7480748374867489748C748F749273
:106B460074957498749B749E74A174A474A774AAA3
:106B560074AD74B074B374B674B974BC746A756D7C
:106B66007570757375767579757C757F75827585A3
:106B76007588758B758E759175947597759A759DD3
:106B860075A075A375A675A975AC75AF75B275B503
:106B960075367639763C763F764276457648764B3C
:106BA600764E765176547657765A765D766076636B
:106BB60076667669766C766F767276757678767B9B
:106BC600767E768176A276A576A876AB76AE76B117
:106BD60076B476B776BA76BD76C076C376C676C90B
:106BE60076CC76CF76D276D576D876DB76DE76E13B
:106BF60076E476E776EA76ED760E771177147717F0
:106C0600771A771D7720772377267729772C772FA2
:106C1600773277357738773B773E774177447747D2
:106C2600774A774D7750775377567759777A777DC6
:106C36007780778377867789778C778F7792779542
:106C46007798779B779E77A177A477A777AA77AD72
:106C560077B077B377B677B977BC77BF77C277C5A2
:106C660077E677E977EC77EF77F277F577F877FBE2
:106C760077FE770178047807780A780D781078130C
:106C860078167819781C781F782278257828782B3A
:106C9600782E7831785278557858785B785E7861B6
:106CA60078647867786A786D7870787378767879AA
:106CB600787C787F788278857888788B788E7891DA
:106CC60078947897789A789D78BE78C178C478C792
:106CD60078CA78CD78D078D378D678D978DC78DF4A
:106CE60078E278E578E878EB78EE78F178F478F77A
:106CF60078FA78FD7800790379067909792A792D69
:106D06007930793379367939793C793F79427945E1
:106D16007948794B794E795179547957795A795D11
:106D26007960796379667969796C796F7972797541
:106D360079967999799C799F79A279A579A879AB81
:106D460079AE79B179B479B779BA79BD79C079C3B1
:106D560079C679C979CC79CF79D279D579D879DBE1
:106D660079DE79E179E479E779EA79ED79F079F311
:106D760079F679F979FC79FF79027A057A087A0B3E
:106D86007A0E7A117A147A177A1A7A1D7A207A2369
:106D96007A267A297A2C7A2F7A507A537A567A5921
:106DA6007A5C7A5F7A627A657A687A6B7A6E7A71D9
:106DB6007A747A777A7A7A7D7A807A837A867A8909
:106DC6007A8C7A8F7A927A957A987A9B7ABC7ABFFD
:106DD6007AC27AC57AC87ACB7ACE7AD17AD47AD779
:106DE6007ADA7ADD7AE07AE37AE67AE97AEC7AEFA9
:106DF6007AF27AF57AF87AFB7AFE7A017B047B07D7
:106E06007B0A7B0D7B107B137B167B197B1C7B1F00
:106E16007B227B257B287B2B7B2E7B317B347B3730
:106E26007B3A7B3D7B407B437B467B497B4C7B4F60
:106E36007B527B557B767B797B7C7B7F7B827B85DC
:106E46007B887B8B7B8E7B917B947B977B9A7B9DD0
:106E56007BA07BA37BA67BA97BAC7BAF7BB27BB500
:106E66007BB87BBB7BBE7BC17BE27BE57BE87BEBB8
:106E76007BEE7BF17BF47BF77BFA7BFD7B007C036F
:106E86007C067C097C0C7C0F7C127C157C187C1B98
:106E96007C1E7C217C247C277C2A7C2D7C4E7C518C
:106EA6007C547C577C5A7C5D7C607C637C667C6908
:106EB6007C6C7C6F7C727C757C787C7B7C7E7C8138
:106EC6007C847C877C8A7C8D7C907C937C967C9968
:106ED6007CBA7CBD7CC07CC37CC67CC97CCC7CCFA8
:106EE6007CD27CD57CD87CDB7CDE7CE17CE47CE7D8
:106EF6007CEA7CED7CF07CF37CF67CF97CFC7CFF08
:106F06007C027D057D267D297D2C7D2F7D327D357C
:106F16007D387D3B7D3E7D417D447D477D4A7D4D6F
:106F26007D507D537D567D597D5C7D5F7D627D659F
:106F36007D687D6B7D6E7D717D927D957D987D9B57
:106F46007D9E7DA17DA47DA77DAA7DAD7DB07DB30F
:106F56007DB67DB97DBC7DBF7DC27DC57DC87DCB3F
:106F66007DCE7DD17DD47DD77DDA7DDD7DFE7D0133
:106F76007E047E077E0A7E0D7E107E137E167E19A7
:106F86007E1C7E1F7E227E257E287E2B7E2E7E31D7
:106F96007E347E377E3A7E3D7E407E437E467E4907
:106FA6007E6A7E6D7E707E737E767E797E7C7E7F47
:106FB6007E827E857E887E8B7E8E7E917E947E9777
:106FC6007E9A7E9D7EA07EA37EA67EA97EAC7EAFA7
:106FD6007EB27EB57ED67ED97EDC7EDF7EE27EE523
:106FE6007EE87EEB7EEE7EF17EF47EF77EFA7EFD17
:106FF6007E007F037F067F097F0C7F0F7F127F1540
:107006007F187F1B7F1E7F217F427F457F487F4BF6
:107016007F4E7F517F547F577F5A7F5D7F607F63AE
:107026007F667F697F6C7F6F7F727F757F787F7BDE
:107036007F7E7F817F847F877F8A7F8D7FAE7FB1D2
:107046007FB47FB77FBA7FBD7FC07FC37FC67FC94E
:107056007FCC7FCF7FD27FD57FD87FDB7FDE7FE17E
:107066007FE47FE77FEA7FED7FF07FF37FF67FF9AE
:107076007F286E756C6C290020300030300031306E
:107086000032300033300034300035300036300006
:107096003730002031002D310031310032310033DC
:1070A600310034310035310036310037310041319D
:1070B6000042310043310044310045310046310081
:1070C6004731004831004931004A31004B31004C0C
:1070D60031004D31004E31005031005131005231F6
:1070E60000533100543100553100563100573100FC
:1070F6005831005931005A31002032002D3200310A
:107106003200323200333200343200353200363249
:10711600003732004132004232004332004432002E
:107126004532004632004732004832004932004AB2
:1071360032004B32004C32004D32004E320050329B
:1071460000513200523200533200543200553200A0
:107156005632005732005832005932005A32002057
:1071660033002D33003133003233003333003433F0
:1071760000353300363300373300413300423300E5
:107186004333004433004533004633004733004859
:1071960033004933004A33004B33004C33004D3340
:1071A600004E330050330051330052330053330046
:1071B60054330055330056330057330058330059C3
:1071C60033005A33002034002D3400313400323479
:1071D600003334003434003534003634003734009C
:1071E6004134004234004334004434004534004600
:1071F60034004734004834004934004A34004B34E4
:10720600004C34004D34004E3400503400513400EC
:107216005234005334005434005534005634005769
:1072260034005834005934005A34002035002D35C6
:107236000031350032350033350034350035350040
:1072460036350037350041350042350043350044B8
:107256003500453500463500473500483500493587
:10726600004A35004B35004C35004D35004E350093
:107276005035005135005235005335005435005510
:1072860035005635005735005835005935005A3502
:10729600002036002D3600313600323600333600F7
:1072A6003436003536003636004136004236004365
:1072B6003600443600453600463600473600483626
:1072C600004936004A36004B36004C36004D360033
:1072D6004E360050360051360052360053360054B2
:1072E60036005536005636005736005836005936A1
:1072F600005A36002037002D37003137003237006C
:10730600333700343700353700363700413700420F
:1073160037004337004437004537004637004737C4
:10732600004837004937004A37004B37004C3700D2
:107336004D37004E37005037005137005237005353
:10734600370054370055370056370057370058373F
:10735600005937005A37002038002D3800313800E0
:1073660032380033380034380035380036380038C3
:107376003800413800423800433800443800453868
:10738600004638004738004838004938004A380077
:107396004B38004C38004D38004E380050380051FC
:1073A60038005238005338005438005538005638E3
:1073B600005738005838005938005A38002039002C
:1073C6002D3900313900323900333900343900356E
:1073D6003900363900413900423900433900443911
:1073E6000045390046390047390048390049390017
:1073F6004A39004B39004C39004D39004E3900509E
:107406003900513900523900533900543900553981
:10741600005639005739005839005939005A390091
:10742600204100214100234100254100264100273B
:1074360041002841002941002A41002C41003141E8
:1074460000324100334100344100354100364100ED
:107456003741003841003941003A41003B41003C88
:1074660041003D41003E4100404100414100424152
:107476000043410044410045410046410047410068
:107486004841004941004A41004B41004C41004DF2
:1074960041004E41004F41005041005141005241D0
:1074A60000534100544100554100564100574100E8
:1074B6005841005941005A41005B41005D4100605E
:1074C6004100614100624100634100644100654141
:1074D600006641006741006841006941006A410059
:1074E6006B41006C41006D41006E41006F410070C0
:1074F60041007141007241007341007441007541C1
:10750600007641007741007841007941007A4100D8
:107516007B41007C41007D41002042002142002346
:107526004200254200264200274200284200294206
:10753600002A42002C42003142003242003342000F
:1075460034420035420036420037420038420039A4
:1075560042003A42003B42003C42003D42003E426D
:107566000040420041420042420043420044420081
:107576004542004642004742004842004942004A0E
:1075860042004B42004C42004D42004E42004F42E8
:107596000050420051420052420053420054420001
:1075A6005542005642005742005842005942005A7E
:1075B60042005B42005D420060420061420062425E
:1075C6000063420064420065420066420067420072
:1075D6006842006942006A42006B42006C42006DDC
:1075E60042006E42006F42007042007142007242D9
:1075F60000734200744200754200764200774200F2
:107606007842007942007A42007B42007C42007D4B
:1076160042002043003143003243003343003443E9
:1076260000354300364300374300384300394300F2
:107636004143004243004343004443004543004660
:1076460043004743004843004943004A43004B4335
:10765600004C43004D43004E43004F43005043004F
:1076660051430052430053430054430055430056D0
:1076760043005743005843005943005A43002044EF
:1076860000314400324400334400344400354400A1
:10769600364400374400384400394400414400422F
:1076A60044004344004444004544004644004744E3
:1076B600004844004944004A44004B44004C4400FE
:1076C6004D44004E44004F44005044005144005283
:1076D6004400534400544400554400564400574463
:1076E600005844005944005A4400204500314500E2
:1076F60032450033450034450035450036450037F0
:10770600450038450039450041450042450043459E
:1077160000444500454500464500474500484500AC
:107726004945004A45004B45004C45004D45004E35
:1077360045004F4500504500514500524500534510
:10774600005445005545005645005745005845002C
:107756005945005A4500204600314600324600335E
:107766004600344600354600364600374600384661
:107776000039460041460042460043460044460062
:107786004546004646004746004846004946004AE8
:1077960046004B46004C46004D46004E46004F46BE
:1077A60000504600514600524600534600544600DB
:1077B6005546005646005746005846005946005A58
:1077C6004600204700314700324700334700344720
:1077D600003547003647003747003847003947002D
:1077E600414700424700434700444700454700469B
:1077F60047004747004847004947004A47004B476C
:10780600004C47004D47004E47004F470050470089
:10781600514700524700534700544700554700560A
:1078260047005747005847005947005A4700204825
:1078360000314800324800334800344800354800DB
:107846003648003748003848003948004148004269
:107856004800434800444800454800464800474819
:10786600004848004948004A48004B48004C480038
:107876004D48004E48004F480050480051480052BD
:107886004800534800544800554800564800574899
:10789600005848005948005A48002049003149001C
:1078A600324900334900344900354900364900372A
:1078B60049003849003949004149004249004349D5
:1078C60000444900454900464900474900484900E7
:1078D6004949004A49004B49004C49004D49004E70
:1078E60049004F4900504900514900524900534947
:1078F6000054490055490056490057490058490067
:107906005949005A4900204A00314A00324A003398
:107916004A00344A00354A00364A00374A00384A97
:1079260000394A00414A00424A00434A00444A009C
:10793600454A00464A00474A00484A00494A004A22
:107946004A004B4A004C4A004D4A004E4A004F4AF4
:1079560000504A00514A00524A00534A00544A0015
:10796600554A00564A00574A00584A00594A005A92
:107976004A00204B00314B00324B00334B00344B56
:1079860000354B00364B00374B00384B00394B0067
:10799600414B00424B00434B00444B00454B0046D5
:1079A6004B00474B00484B00494B004A4B004B4BA2
:1079B600004C4B004D4B004E4B004F4B00504B00C4
:1079C600514B00524B00534B00544B00554B005645
:1079D6004B00574B00584B00594B005A4B00414C3B
:1079E60000424C00434C00444C00454C00464C00C1
:1079F600474C00484C00494C004A4C004B4C004C4C
:107A06004C004D4C004E4C004F4C00504C00514C1D
:107A160000524C00534C00544C00554C00564C0040
:107A2600574C00584C00594C005A4C00204D003120
:107A36004D00324D00334D00344D00354D00364D6E
:107A460000374D00384D00394D00414D00424D0084
:107A5600434D00444D00454D00464D00474D0048FE
:107A66004D00494D004A4D004B4D004C4D004D4DCB
:107A7600004E4D004F4D00504D00514D00524D00EF
:107A8600534D00544D00554D00564D00574D00586E
:107A96004D00594D005A4D00204E00314E00324ED9
:107AA60000334E00344E00354E00364E00374E0041
:107AB600384E00394E00414E00424E00434E0044BF
:107AC6004E00454E00464E00474E00484E00494E79
:107AD600004A4E004B4E004C4E004D4E004E4E009E
:107AE6004F4E00504E00514E00524E00534E005421
:107AF6004E00554E00564E00574E00584E00594EF9
:107B0600005A4E00414F00424F00434F00444F0081
:107B1600454F00464F00474F00484F00494F004A27
:107B26004F004B4F004C4F004D4F004E4F004F4FF4
:107B360000504F00514F00524F00534F00544F001A
:107B4600554F00564F00574F00584F00594F005A97
:107B56004F00205000315000325000335000345056
:107B6600003550003650003750003850003950006C
:107B760041500042500043500044500045500046DA
:107B860050004750004850004950004A50004B50A2
:107B9600004C50004D50004E50004F5000505000C9
:107BA600515000525000535000545000555000564A
:107BB60050005750005850005950005A500020515C
:107BC600003151003251003351003451003551001B
:107BD60036510037510038510039510041510042A9
:107BE6005100435100445100455100465100475150
:107BF600004851004951004A51004B51004C510078
:107C06004D51004E51004F510050510051510052FC
:107C160051005351005451005551005651005751CF
:107C2600005851005951005A51002052003152005B
:107C36003252003352003452003552003652003769
:107C4600520038520039520041520042520043520B
:107C56000044520045520046520047520048520026
:107C66004952004A52004B52004C52004D52004EAF
:107C760052004F520050520051520052520053527D
:107C860000545200555200565200575200585200A6
:107C96005952005A520020530031530032530033D8
:107CA60053003453003553003653003753003853CE
:107CB60000395300415300425300435300445300DC
:107CC6004553004653004753004853004953004A62
:107CD60053004B53004C53004D53004E53004F532B
:107CE6000050530051530052530053530054530055
:107CF6005553005653005753005853005953005AD2
:107D0600530020540031540032540033540034548C
:107D160000355400365400375400385400395400A6
:107D26004154004254004354004454004554004614
:107D360054004754004854004954004A54004B54D8
:107D4600004C54004D54004E54004F540050540003
:107D56005154005254005354005454005554005684
:107D660054005754005854005954005A5400205592
:107D76000031550032550033550034550035550055
:107D860036550037550038550039550041550042E3
:107D96005500435500445500455500465500475586
:107DA600004855004955004A55004B55004C5500B2
:107DB6004D55004E55004F55005055005155005237
:107DC6005500535500545500555500565500575506
:107DD600005855005955005A550020560031560096
:107DE60032560033560034560035560036560037A4
:107DF6005600385600395600415600425600435642
:107E06000044560045560046560047560048560060
:107E16004956004A56004B56004C56004D56004EE9
:107E260056004F56005056005156005256005356B3
:107E360000545600555600565600575600585600E0
:107E46005956005A56002057003157003257003312
:107E56005700345700355700365700375700385704
:107E66000039570041570042570043570044570016
:107E76004557004657004757004857004957004A9C
:107E860057004B57004C57004D57004E57004F5761
:107E9600005057005157005257005357005457008F
:107EA6005557005657005757005857005957005A0C
:107EB60057002058003158003258003358003458C3
:107EC60000355800365800375800385800395800E1
:107ED600415800425800435800445800455800464F
:107EE60058004758004858004958004A58004B580F
:107EF600004C58004D58004E58004F58005058003E
:107F060051580052580053580054580055580056BE
:107F160058005758005858005958005A58002059C8
:107F2600003159003259003359003459003559008F
:107F3600365900375900385900395900415900421D
:107F460059004359004459004559004659004759BC
:107F5600004859004959004A59004B59004C5900EC
:107F66004D59004E59004F59005059005159005271
:107F7600590053590054590055590056590057593C
:107F8600005859005959005A5900205A00315A00D0
:107F9600325A00335A00345A00355A00365A0037DE
:107FA6005A00385A00395A00415A00425A00435A78
:107FB60000445A00455A00465A00475A00485A009B
:107FC600495A004A5A004B5A004C5A004D5A004E24
:107FD6005A004F5A00505A00515A00525A00535AEA
:107FE60000545A00555A00565A00575A00585A001B
:0A7FF600595A005A5A002573000082
:020000040020DA
:08000000FFFFFFFFFFFFFFFF00
:020000040030CA
:0E00000015026A2BFF8991FF00800FE00F4070
:00000001FF
